:020000040800F2
:10000000C0050020D5000008CD230008BF2000084F
:1000100000000000000000000000000000000000E0
:10002000000000000000000000000000F5240008AF
:10003000000000000000000049240008F724000828
:10004000E7000008E7000008E7000008E7000008F4
:10005000E70000083D020008E7000008E70000088C
:10006000E7000008E7000008E7000008E7000008D4
:10007000E7000008E700000800000000E7000008B3
:1000800000000000E7000008000000000000000081
:10009000E700000800000000E7000008E700000893
:1000A000E7000008E7000008E7000008E700000894
:1000B000E7000008E5240008E7000008E700000862
:1000C0000348854600F092F800480047052F0008D5
:1000D000C00500200448804704480047FEE7FEE7CB
:1000E000FEE7FEE7FEE7FEE7C1250008C1000008C5
:1000F00030B50B46014600202022012409E00D46C0
:10010000D5409D4205D31D469540491B2546954047
:1001100040191546521E002DF1DC30BDF0B51FB45C
:100120000646002082B005464024019100901BE065
:10013000019922460F46304600F046F8049A059B86
:10014000801A994110D310461946224600F02CF827
:10015000361A8F410197224601200021009F00F0AE
:1001600023F838184D4100902046641E0028DFDC3B
:10017000019B00982946324607B0F0BD421C017829
:10018000401C0029FBD1801A704730B5054600207D
:10019000034600E05B1C934205D2EC5CC85C201A6D
:1001A00001D1002CF6D130BD10B5202A04DB014668
:1001B000203A9140002010BD914020239C1A034614
:1001C000E3401943904010BD10B5202A04DB0846D7
:1001D000203AD040002110BD0B46D340D04020240F
:1001E000A21A91400843194610BD0000064C012593
:1001F000064E05E0E36807CC2B430C3C98471034CF
:10020000B442F7D3FFF760FF103000083030000829
:1002100038B50446074908480068FFF769FF60439E
:10022000009002E00098401E009000980028F9D14C
:1002300038BD000040420F002000002010B5012012
:1002400000F040FA022000F03DFA10BD70B50446FF
:100250000D4600BF5420005D012801D1022070BD71
:1002600001215420015500BF206880680421084006
:10027000800800280AD0A06D20210843A06500BF97
:1002800000215420015500BF0120E8E73C4968687F
:10029000884238D02068806A29684903490B08439E
:1002A0002168886228684003400B364908400121D4
:1002B0008904884208D1344880684901084332499A
:1002C00088600A20FFF7A4FF28684003400B2F49ED
:1002D000084001214904884205D12B488068490122
:1002E00008432949886028684003400B2849084092
:1002F0000121090488423BD1234880680902084350
:100300002149886034E02068806A29684903490BE4
:1003100088432168886228684003400B19490840D7
:1003200001218904884205D1174880684901884322
:100330001549886028684003400B14490840012192
:100340004904884205D110488068490188430E4914
:10035000886028684003400B0D49084001210904CA
:10036000884205D1084880680902884306498860A8
:1003700000BF00215420015500BF00206FE700009E
:100380000110000000000448002701400000024462
:100390000000014010B50446002C01D1012010BD21
:1003A000A06D002806D1E0650021542001552046AB
:1003B00000F00AF9A06D10210840002806D120683D
:1003C000806804210840800800280AD0A06D102110
:1003D0000843A06500BF00215420015500BF012043
:1003E000DDE7A06DFF210131884302210843A065AC
:1003F000206880688007800F012807D12068006886
:10040000C007C00F002801D0012000E00020002814
:100410003AD100BF032189076068884207D049426A
:100420006068884203D04900606888420CD1206827
:10043000006980008008216808612068006961689F
:1004400008432168086112E0206800698000800884
:10045000216808615A4880680F21890488435849F7
:10046000886008468068616808435549886000BF15
:100470002068C068182188432168C8602068C06867
:10048000A16808432168C8604D4880680121490679
:1004900088434B49886008468068218F4906084395
:1004A00047498860206880680121090708400028C2
:1004B00004D1206880680843216888602068C0688B
:1004C000404908402168C8602169E068022901D1DB
:1004D000042100E000210843216A49030843216BFD
:1004E00049000843616B0843A16989030843E16936
:1004F000C90308432168C96808432168C860FF210F
:10050000C231A06A884207D0E16AA06A0843216824
:10051000C96808432168C860606A012812D1206A4E
:10052000002807D12068C068012109040843216818
:10053000C86007E0A06D20210843A065E06D01219F
:100540000843E065206C012817D120680069FF216D
:100550008900884321680861616CA06C0843E16CE4
:100560000843216809690843216808612068006917
:1005700001210843216808610BE020680069C00779
:10058000C00F002805D0206800694008400021689D
:10059000086120684069C008C0002168486120687F
:1005A0004069E16B0843216848610020E065A06D67
:1005B0000221884301210843A0650020EFE60000E6
:1005C000002701401902FEFF10B586B004460B4912
:1005D0002068884210D10A48406B491508430849F1
:1005E0004863C0200190032002900020039001A9DD
:1005F0000520000700F076F806B010BD0024014089
:100600000010024070B5044600252520005D022838
:1006100003D00420E063012549E0206800680E2132
:10062000884321680860206800684008400021680D
:10063000086020492068884201D1012026E01D4938
:1006400014312068884201D110201FE01949283157
:100650002068884201D1801518E016493C31206895
:10066000884201D1801411E012495031206888423B
:1006700002D10120000409E00E496431206888425B
:1006800002D10120000501E00120000609490839D6
:10069000486001212520015500BF0021242001557B
:1006A00000BFA06B002802D02046A16B88472846D7
:1006B00070BD0000080002400121014A116070472E
:1006C0001C00002010B50446054840692040002861
:1006D00004D0034844612046FFF7EEFF10BD000040
:1006E0000004014070B50346002200240020DAE037
:1006F000012696400D6835402C46002C77D04D6879
:10070000022D02D04D68122D15D1D508AE001D4620
:100710002035A8595507EE0E0F25B5400646AE43C5
:1007200030465607F60E0D69B5402843D508AD0092
:100730001E46203670514D68012D08D04D68022D9F
:1007400005D04D68112D02D04D68122D18D1986832
:1007500056000325B5400646AE4330465600CD68E8
:10076000B540284398605868012595400646AE4339
:10077000304610264D6835402D0995402843586075
:10078000186856000325B5400646AE4330460D793D
:10079000AD07AD0F5600B54028431860D868560025
:1007A0000325B5400646AE43304656008D68B54039
:1007B0002843D860012636074D683540B54271D1CF
:1007C0003C4D6D6B012635433A4E75633A4D9608A4
:1007D000B600A85995072E0F0F25B5400646AE4323
:1007E000304605252D07AB4202D1002515E059E022
:1007F000324DAB4201D101250FE0314DAB4201D169
:1008000002250AE02F4DAB4201D1032505E02E4D14
:10081000AB4201D1052500E006259607360FB5400D
:100820002843254D9608B600A851284D286805464E
:10083000A5432846012636044D683540B54202D10D
:10084000054625432846214D286068680546A5438E
:100850002846012676044D683540B54202D105464A
:1008600025432846194D6860A8680546A5432846D3
:10087000012636054D683540B54202D1054625436F
:100880002846124DA860E8680546A543284601267B
:1008900076054D683540B54202D1054625432846C8
:1008A0000A4DE860521C0D68D540002D00D01FE7AE
:1008B00070BD00000010024008000140000400501C
:1008C00000080050000C0050001C005000040140C3
:1008D000002A01D0816100E0816270470148006810
:1008E000704700002400002002464120805C202840
:1008F0002FD100BF4020805C012801D10220704729
:1009000001234020835400BF2423412083541068D6
:1009100000684008400013681860106800680123F0
:100920001B03984313681860106800680843136835
:1009300018601068006801231843136818602023AA
:100940004120835400BF00234020835400BF002077
:10095000D5E70220D3E710B502460B46002141201F
:10096000805C20282ED100BF4020805C012801D16E
:10097000022010BD01244020845400BF24244120C3
:1009800084541068006840084000146820601068B3
:1009900001680F2424020846A043014618020143BF
:1009A000106801601068006801242043146820600A
:1009B00020244120845400BF00244020845400BFE0
:1009C0000020D6E70220D4E710B50446002C01D160
:1009D000012010BD4120005D002805D100214020EC
:1009E0000155204600F05AF8242141200155206885
:1009F000006840084000216808600F21090660680F
:100A0000884321680861206880680121C903884300
:100A100021688860E068012806D10121C903A06827
:100A200008432168886005E021218902A068084305
:100A300021688860E068022802D18002216848604D
:100A40002068406814490843216848602068C068ED
:100A50000121C90388432168C8606169206908438E
:100A6000A169090208432168C860216AE069084356
:100A70002168086020680068012108432168086037
:100A800000206064202141200155002020630021C6
:100A90004220015500209CE70080000210B586B07E
:100AA00004460E492068884215D1032000020190B7
:100AB000122002900120039003200490042005904E
:100AC00001A90748FFF70EFE0648806B0121490582
:100AD00008430449886306B010BD0000005400407C
:100AE000000400500010024002480068401C014908
:100AF000086070472400002010B5064800684021B7
:100B0000084304490860002000F006F800F018F8D7
:100B1000002010BD0020024070B504467D21C900B0
:100B200006480068FFF7E4FA054601F037F80022AE
:100B30002146501E00F030F8002070BD200000203B
:100B400010B50E48406B012108430C494863084624
:100B5000806B090408430949886300221146501F2D
:100B600000F01AF800221146901E00F015F800223D
:100B70001146501E00F010F810BD00000010024099
:100B800000BFC206D20E01219140024A116000BF8F
:100B90007047000000E100E070B504460D461646BF
:100BA0002946204601F014FC70BD0000F0B585B068
:100BB00005460026002003900290002400270190A3
:100BC0000090102D7ED008DC012D7CD0022D7BD032
:100BD000042D7AD0082D79D136E1202D06D0402D74
:100BE0004DD00120C002281AF5D100E000BFB34863
:100BF0000669006903210904084004460120000435
:100C0000844206D1C0113040002802D0601002900A
:100C100034E001204004844206D102203040002804
:100C200002D0A748029029E003200004844223D187
:100C3000A2484038006801214904084000281BD020
:100C40009E484038006821010840039001210905B1
:100C50000398401A09D0401A04D0401A08D1994884
:100C6000029008E09848029005E09848029002E05F
:100C70009748029000BF01E00020029019E18F48E0
:100C8000C0680121890608400446002C41D18B48E8
:100C9000403800684910084000283AD0874840385A
:100CA000C0680F2189040840074684484038C0685E
:100CB0000321890508400190B80C86490F5C019812
:100CC000800D04E0E5E035E05FE08AE0F0E0401C04
:100CD00001907A484038C068012109040840002882
:100CE0000CD176484038006810210840002802D016
:100CF0007748009004E07848009001E07748009041
:100D000000987843009001990098FFF7F1F902905C
:100D10000FE001208006844209D16848403880688D
:100D200002210840002802D06D48029001E0002016
:100D30000290BEE06148C0688407A40F002C03D174
:100D400000F02AFB02901FE0022C09D15B484038DA
:100D5000006804210840002802D05F48029013E098
:100D6000012C03D100F02AFB02900DE0032C09D1E5
:100D700052480069012149020840002802D0880138
:100D8000029001E00020029093E04C48C0680C21E2
:100D900008400446002C03D100F0ECFA02901FE05A
:100DA000082C09D145484038006804210840002833
:100DB00002D04948029013E0042C03D100F0FEFA5F
:100DC00002900DE00C2C09D13C4800690121490238
:100DD0000840002802D08801029001E00020029023
:100DE00067E03648C0680321890208400446002CA9
:100DF00003D100F0BFFA029025E00120C002844236
:100E000009D12E484038006804210840002802D04B
:100E10003148029017E001208002844203D100F0A3
:100E2000CDFA02900FE003208002844209D12348CA
:100E30000069012149020840002802D0880102907F
:100E400001E00020029034E01C48C068032109033F
:100E500008400446002C03D100F08CFA029017E001
:100E600001204003844209D114484038006804211D
:100E70000840002802D01848029009E00120000331
:100E8000844203D100F09AFA029001E0002002901F
:100E90000FE00A484038806B0121890508408842EC
:100EA00003D100F067FA029001E00020029000E018
:100EB00000BF00BF029805B0F0BD00004010024026
:100EC0008890000020A1070040420F0080841E008F
:100ED00000093D00043000080024F40000127A00EC
:100EE000006CDC02F8B504460026002520212068AD
:100EF0000840202804D089012068084088427DD11C
:100F0000202120680840202800D100BF0121C9020B
:100F100020680840884200D100BF00279148806BBC
:100F2000012109070840002805D18E48806B08433D
:100F30008C49886301278C480068FF2101310840F3
:100F4000002816D188480068084387490860FFF7E1
:100F5000C5FC064606E0FFF7C1FC801B642801D9EA
:100F60000320F8BD80480068FF21013108400028B7
:100F7000F1D07C48006803210905084005466068F7
:100F80000840A84203D1A0680840A8420ED003211F
:100F9000090460680840884208D17248006801214D
:100FA00049040840002801D00120DAE76D484030AC
:100FB00000690321090408400546002D49D06068F6
:100FC0000840A84204D020212068084020280BD0E7
:100FD00003210904A0680840A8423AD00121C902AF
:100FE00020680840884234D15E48403000690321BF
:100FF0000904884305465B48403000E052E0006940
:101000000121C90408435749403108610846006975
:101010000121C904884353494031086108460561EC
:1010200080152840002814D0FFF758FC064607E03A
:10103000FFF754FC801B4D49884201D9032090E7FB
:10104000484840300069012149020840400A002810
:10105000EED000BF00BF0321090460680840884249
:101060000AD14048006809018843032212056168DB
:10107000114008433B49086000BF3A4840300069CE
:101080000322120461681140084336494031086167
:1010900000BF012F05D13348806B89058843314952
:1010A000886300BF2078C007C00F002809D02D48F2
:1010B0004030C06880088000E16808432949403119
:1010C000C860022120680840022809D12548403024
:1010D000C0680C2188432169084322494031C86017
:1010E00004212068084004280AD11E484030C06806
:1010F000032189028843616908431A494031C86065
:1011000008212068084008280AD116484030C068E5
:10111000032109038843A169084312494031C8608B
:10112000402120680840402809D10E484030C0685E
:1011300009058843216A08430A494031C860802173
:101140002068084080280AD106484030C068032142
:1011500089048843E169084302494031C86000209E
:10116000FFE60000001002400070004088130000FD
:1011700070B504460D46002676480068C007C00FCB
:10118000A8420ED2734800684008400028437149C5
:10119000086008460068C007C00FA84201D00120BF
:1011A00070BD022120680840022807D16A48C06843
:1011B000F0218843A16808436749C8602078C007C8
:1011C000C00F00284CD06068022809D1624800682E
:1011D000012149040840400C002824D10120DFE708
:1011E0006068032809D15C4800680121490608406D
:1011F000400E002817D10120D2E76068012808D1ED
:101200005548006804210840800800280BD10120BF
:10121000C6E751480068012149020840400A0028F9
:1012200001D10120BCE74C48C0688008800061689B
:1012300008434949C860FFF751FB06466068022829
:101240000FD107E0FFF74AFB801B4449884201D9D0
:101250000320A5E74048C0680C2108400828F1D1C8
:1012600034E0606803280FD107E0FFF737FB801BED
:101270003A49884201D9032092E73748C0680C21D7
:1012800008400C28F1D121E0606801280FD107E067
:10129000FFF724FB801B3149884201D903207FE7F7
:1012A0002D48C0680C2108400428F1D10EE007E069
:1012B000FFF714FB801B2949884201D903206FE7FF
:1012C0002548C0680C2108400028F1D12148006859
:1012D000C007C00FA8420ED91E4800684008400051
:1012E00028431C49086008460068C007C00FA84290
:1012F00001D0012054E7042120680840042808D1C7
:101300001548C068072109028843E168084312496B
:10131000C860082120680840082809D10E48C06824
:101320000721C90288432169C90008430A49C860E6
:1013300000F044F80849C968F02211400909084A38
:10134000515CC840074908600020FFF7E5FB00201A
:1013500026E7000000200240001002408813000031
:10136000EC2F0008200000200148006870470000B2
:101370002000002000B5FFF7F7FF0549C9680722E4
:1013800012021140090A034A515CC84000BD000026
:1013900000100240FC2F000800B5FFF7E5FF0549EB
:1013A000C9680722D2021140C90A034A515CC840E9
:1013B00000BD000000100240FC2F0008FEB5002513
:1013C0000026002700240020019000902F48C568C7
:1013D0000C202840002847D0042804D008280ED02C
:1013E0000C2840D10EE02948006810210840002850
:1013F00002D02748009001E02648009042E02648AD
:1014000000903FE00F2080042840800C23490E5CB0
:10141000032080052840800D471C1C48C06801211E
:1014200009040840002807D01B4971430846394683
:10143000FEF75EFE044614E01448006810210840E0
:10144000002807D01249714308463946FEF750FE7E
:10145000044606E00F49714308463946FEF748FE48
:10146000044600940EE000BF084840680721490385
:101470000840400B01900198401C01218140C803A5
:10148000009000BF00BF0098FEBD000000100240A9
:1014900000093D000024F40000127A000430000826
:1014A000F8B5044600252078C007C00F00287DD07D
:1014B000FE48C0680C21084008280BD0FB48C068D3
:1014C00008400C2813D1F948C068012109040840DC
:1014D00088420CD1F5480068012149040840400CBD
:1014E000002863D06068002860D10120F8BD00BFEB
:1014F000012109046068884205D1EC48006808436E
:10150000EA49086027E005210904606888420ED195
:10151000E6480068012189040843E4490860084658
:101520000068012109040843E049086013E0DF482E
:101530000068012109048843DC4908600846006806
:10154000012109040840009000BFD84800688900C4
:101550008843D649086000BF6068002813D0FFF7B1
:10156000BDF9054606E0FFF7B9F9401B642801D92B
:101570000320BBE7CD480068012149040840400C26
:101580000028F0D012E0FFF7A9F9054606E0FFF7C2
:10159000A5F9401B642801D90320A7E7C3480068C8
:1015A000012149040840400C0028F0D102212068A4
:1015B0000840022868D1BD48C0680C2108400428B2
:1015C0000BD0BA48C06808400C281DD1B748C06885
:1015D000012109040840002816D1B44800680421FC
:1015E00008408008002804D0E068012801D00120CC
:1015F0007CE7AE4840681F2109028843216909023F
:101600000843AA4948603FE0E068002824D0A74882
:10161000006809218843E1680843A4490860FFF78E
:101620005DF9054606E0FFF759F9401B022801D98C
:1016300003205BE79D4800680421084080080028DB
:10164000F1D09A4840681F210902884321690902A4
:1016500008439649486017E09448006840084000F5
:1016600092490860FFF73AF9054606E0FFF736F9B8
:10167000401B022801D9032038E78C480068042168
:10168000084080080028F1D1102120680840102867
:1016900060D18648C0680C21084000285BD183488F
:1016A0000068012149020840400A002804D0E0698E
:1016B000002801D1012019E77C48616A40680722AF
:1016C00052031040814219D9606A00F0BFFE002821
:1016D00001D001200AE77548406807214903884383
:1016E000616A084371494860084640680002000A80
:1016F000218C090608436D49486018E06B48406832
:10170000072149038843616A0843684948600846DD
:1017100040680002000A218C0906084363494860BA
:10172000606A00F093FE002801D00120DEE6606AC6
:10173000400B401C01218140C8035C49C968F0226C
:10174000114009095A4A515CC8405A4908600020B2
:10175000FFF7E2F949E0E06900282CD0534800681F
:10176000FF210131084351490860FFF7B7F80546EA
:1017700006E0FFF7B3F8401B022801D90320B5E6C5
:101780004A480068012149020840400A0028F0D078
:1017900046484068072149038843616A0843434932
:1017A0004860084640680002000A218C0906084388
:1017B0003E49486019E03D480068FF2101318843F7
:1017C0003A490860FFF78AF8054606E0FFF786F811
:1017D000401B022801D9032088E634480068012113
:1017E00049020840400A0028F0D10821206808403A
:1017F000082839D1606900281BD02C484030006986
:1018000001210843294940310861FFF767F805467F
:1018100006E0FFF763F8401B022801D9032065E6C4
:101820002248403000690221084040080028F0D0DA
:101830001AE01E4840300069400840001B49403112
:101840000861FFF74BF8054606E0FFF747F8401B35
:10185000022801D9032049E61448403000690221DA
:10186000084040080028F0D10421206808400428DE
:1018700077D100260D48806B89060840002805D1E5
:101880000A48806B08430949886301260A480068B2
:10189000FF210131084000281ED107480068084395
:1018A00005490860FFF71AF805460EE000100240EF
:1018B000EC2F00082000002000700040FFF70EF819
:1018C000401B642801D9032010E6A6480068FF21C8
:1018D000013108400028F1D000BFFF210131A0688C
:1018E000884205D1A048006908439F49086130E05B
:1018F000A06800280DD19C480069FF210131884370
:1019000099490861084600690915884396490861A4
:101910001FE005210902A06888420DD192480069A4
:101920000121890208439049086108460069891528
:1019300008438D4908610CE08B480069FF210131A3
:101940008843894908610846006909158843864922
:10195000086100BFA068002815D0FEF7BFFF05464C
:1019600008E02FE0FEF7BAFF401B8049884201D90A
:101970000320BBE57C480069012149020840400A78
:101980000028EFD013E0FEF7A9FF054607E0FEF7B9
:10199000A5FF401B7549884201D90320A6E572487E
:1019A0000069012149020840400A0028EFD1012EB8
:1019B00007D16D484038806B310788436A49403908
:1019C000886300BF202120680840202852D1A069E8
:1019D00000282BD000BF64484038806801210843AC
:1019E0006149403988600846406B012108435E49DF
:1019F000403948635E48006A0121490308435C4955
:101A0000086200BFFEF76AFF054606E0FEF766FFC4
:101A1000401B022801D9032068E5534840388068FC
:101A20000221084040080028F0D023E000BF4E48C3
:101A300040388068400840004B49403988604C4835
:101A4000006A0121490388434949086200BFFEF743
:101A500045FF054606E0FEF741FF401B022801D97D
:101A6000032043E540484038806802210840400890
:101A70000028F0D1A06A002872D03B484038C068E6
:101A80000C2108400C2869D0A06A022848D13648A9
:101A9000403800680121090688433349403908600D
:101AA000FEF71CFF054606E0FEF718FF401B022864
:101AB00001D903201AE52C48403800680121490665
:101AC0000840400E0028EFD1216BE06A0843616BAB
:101AD000084325494039C968FD221204914308434F
:101AE00021494039C86008460068012109060843B9
:101AF0001D4940390860FEF7F1FE054606E0FEF795
:101B0000EDFE401B022801D90320EFE416484038BF
:101B10000068012149060840400E0028EFD01FE070
:101B20001148403800680121090688430E494039B0
:101B30000860FEF7D3FE054606E0FEF7CFFE401B29
:101B4000022801D90320D1E4074840380068012168
:101B500049060840400E0028EFD101E00120C5E40D
:101B60000020C3E4007000404010024088130000D1
:101B700000000140042806D10649096904221143E6
:101B8000044A116105E00349096904229143014AAD
:101B90001161704700E000E07047000070B5044636
:101BA0002546681E0949884201D901200CE0681EBB
:101BB000074948610321081F00F00AFC002004497E
:101BC000886107200861002070BD0000FFFFFF0052
:101BD00000E000E010B5FFF7DFFF10BD7047704771
:101BE000F8B504462068C569206806682807000F14
:101BF0000090009800280BD120202840002807D012
:101C000020203040002803D0204600F0ECFDF8BD35
:101C100020688768009800287ED0F807C00F002849
:101C200004D1FF20213030400028F5D0E807C00F54
:101C300000280BD0FF2001303040002806D00120C2
:101C400021680862E06E01210843E0660220284016
:101C500000280AD0F807C00F002806D0022021680B
:101C60000862E06E04210843E06604202840002852
:101C70000AD0F807C00F002806D0042021680862A7
:101C8000E06E02210843E0660820284000280ED0BC
:101C900020203040002803D1F807C00F002806D0CC
:101CA000082021680862E06E08210843E066E06EC3
:101CB000002841D020202840002806D02020304095
:101CC000002802D0204600F08EFDE06E082108407A
:101CD000002805D12068806840210840002826D0CF
:101CE000204600F05FFD2068806840210840002801
:101CF00019D020688068884321688860606E002859
:101D00000DD02648616E8863606EFEF77BFC00286C
:101D100012D0606E816B00E00FE088470CE0204637
:101D2000FFF75DFF08E02046FFF759FF04E020467B
:101D3000FFF755FF0020E06669E701200005284015
:101D4000002811D001208005384000280CD0012047
:101D50000005216808622021692001556A2001558B
:101D60002046FFF73BFF52E780202840002807D09D
:101D700080203040002803D0204600F065FF46E771
:101D800040202840002807D040203040002803D0C1
:101D9000204600F018FD3AE700BF38E78D2700081D
:101DA00010B50446002C01D1012010BDA069002807
:101DB00000D000E000BF6920005D002805D10021AF
:101DC00068200155204600F02DF824216920015596
:101DD000206800684008400021680860606A0028A8
:101DE00002D0204600F020FC204600F045FD0128EE
:101DF00000D1DAE7206840680921C90288432168D8
:101E00004860206880682A218843216888602068AB
:101E100000680121084321680860204600F07CFC2E
:101E2000C3E7000010B586B0044612492068884216
:101E30001DD11148806B0121890408430E49886334
:101E400003208002019002200290002003900320D2
:101E500004900420059001A90848FEF743FC0022E5
:101E600001211D20FEF798FE1D20FEF789FE06B019
:101E700010BD000000480040001002400004005067
:101E800010B503466A20C05C20286AD1002901D021
:101E9000002A01D1012010BD012424039868A0422A
:101EA00008D11869002805D1C807C00F002801D043
:101EB0000120F0E700BF6820C05C012801D10220AA
:101EC000E9E701246820C45400BF59655820C25274
:101ED0005A20C25200BF24039868A0420AD1186950
:101EE000002803D1204C5C20C45220E0FF245C2059
:101EF000C4521CE0986800280AD11869002803D150
:101F0000FF245C20C45212E07F245C20C4520EE007
:101F1000012424079868A04209D11869002803D138
:101F20007F245C20C45202E03F245C20C45200BFE6
:101F30000020D86622246A20C45400BF00246820F0
:101F4000C45400BF18688068012420431C68A06046
:101F500018680068FF24213420431C68206000209A
:101F600099E7022097E70000FF01000070B50546E1
:101F7000002600200F4908700F492868884213D1B5
:101F800004220EA10F48FEF700F9C6B2002E0BD1B5
:101F9000012008490870002404E000200949085580
:101FA000601CC4B2042CF8DB042206490648FFF783
:101FB00067FF70BD05000020004800404F4B0D0A30
:101FC0000000000001000020D4000020FEB50446FF
:101FD0000D4616461F46002001906920005D20280E
:101FE0006AD1002D01D0002E01D10120FEBD0121BA
:101FF0000903A068884208D12069002805D1E807B4
:10200000C00F002801D00120F0E700BF6820005D6C
:10201000012801D10220E9E701216820015500BF14
:102020000020E066212169200155FEF757FC019050
:10203000502006535220065325E05220005B401EDC
:1020400081B2522001530097002280212046019B3B
:1020500000F033FE002801D00320C7E70121090367
:10206000A06888420BD12069002808D10295029D02
:102070002888C005C00D21688862AD1C03E028785F
:102080006D1C216888625220005B0028D5D1009722
:10209000002240212046019B00F00FFE002801D0C5
:1020A0000320A3E720216920015500BF00216820FB
:1020B000015500BF002099E7022097E7704700BF55
:1020C000FEE700001CB52348234908600021224890
:1020D0000164032080072049486000211E48816078
:1020E000C163012101610021C16001624162C162DD
:1020F000FF21C2318162002101630421416100217D
:10210000416381618163C161FEF744F9002804D015
:10211000FF21093111A000F008FE14480090800151
:10212000019069460C48FEF791F8002804D0FF2181
:1021300012310AA000F0F9FD0D48009069460648EA
:10214000FEF784F8002804D0FF211A3103A000F024
:10215000ECFD1CBD00240140280000202E2E2F5332
:1021600072632F6D61696E2E6300000040000018DD
:102170008000001C00B587B000BF5748C06A04212A
:1021800008435549C8620846C06A042108400190C6
:1021900000BF00BF00BF5048C06A802108434E49BD
:1021A000C8620846C06A80210840019000BF00BF95
:1021B00000BF4948C06A012108434749C862084630
:1021C000C06AC007C00F019000BF00BF00BF084633
:1021D000C06A022108434049C8620846C06A022119
:1021E0000840019000BF00BF00223C4905200007C5
:1021F000FEF76EFB002278213948FEF769FB0720C5
:1022000040030290032003900020049002A9354867
:10221000FEF768FA0320029003900020049002A9C0
:102220003148FEF75FFA0320029030480390012006
:10223000049002A905200007FEF754FA2C480290EA
:10224000032003900020049002A905200007FEF758
:1022500049FA30200290012003900020049005905C
:1022600002A905200007FEF73DFA03200290002096
:102270000390049002A91A48FEF734FA1D48029010
:10228000032003900020049002A91548FEF72AFAC3
:1022900001200003029001200390022004900320FB
:1022A000059002A905200007FEF71CFA782002908D
:1022B0000120039000200490059002A90848FEF731
:1022C00011FA002211460520FEF766FC0520FEF7F4
:1022D00057FC07B000BD00000010024030100000A5
:1022E0000004005000080050001C005000002110A5
:1022F0000C8F000084F0000010B5184818490860E1
:10230000E120C00048600021154881600121C160C2
:102310000021016141618161C1610162FEF754FBED
:10232000002804D0FF212E310EA000F0FEFC002179
:102330000B48FEF7D9FA002804D0FF21353109A057
:1023400000F0F3FC00210648FEF705FB002804D04E
:10235000FF213C3103A000F0E8FC10BD0054004018
:10236000880000202E2E2F5372632F6D61696E2E10
:102370006300000010B50F480F4908604B20C001F2
:10238000486000210C488160C16001610C214161FD
:102390000021816101620020074948620846FFF779
:1023A000FFFC002804D0FF21503104A000F0BDFC48
:1023B00010BD000000480040D40000202E2E2F53F6
:1023C00072632F6D61696E2E63000000704700001C
:1023D00010B5002819DA1A4A03071B0F083B9B089F
:1023E0009B00D2588307DC0EFF23A3409A438B0740
:1023F0001B0E8407E40EA3401A43114B0407240F5D
:10240000083CA408A4001A5118E00E4A03231B023A
:10241000D21883089B00D2588307DC0EFF23A34009
:102420009A438B071B0E8407E40EA3401A43054B07
:10243000032424021B198408A4001A5110BD0000B3
:102440001CED00E000E100E07047000010B501461F
:10245000002300222048C068F0242040002829D111
:102460001D48806B012424072040002806D01B480B
:1024700000680324E4022040034613E01648806B02
:10248000012424072043144CA0631448006803244B
:10249000E402204003461048806B01242407A04337
:1024A0000D4CA0630320C002834203D1C0008142CF
:1024B00000D101220A480068400840001043084C3F
:1024C000206020460068C007C00F904201D0012064
:1024D00010BD0020FCE7000000100240007000402A
:1024E0000020024010B50248FFF77AFB10BD000043
:1024F000D4000020704710B5FEF7F6FAFFF76AFB2C
:1025000010BD000030B59DB0284800680321C90205
:1025100088430121C90240182449086010200F9007
:1025200001201690002017900520400318900020ED
:1025300019900FA8FEF7B4FF002803D0C8211CA0F3
:1025400000F0F3FB0F200A9000200B900C900D90F0
:102550000E9000210AA8FEF70BFE002803D0D6211A
:1025600013A000F0E2FB0C200190002006900790E1
:1025700001A8FEF7B7FC002803D0DE210CA000F074
:10258000D4FBFEF7F1FE05467D21C900FDF7B0FD45
:102590000446FFF703FB0420FFF7ECFA0022114684
:1025A000501EFEF7F9FA1DB030BD0000007000406B
:1025B0002E2E2F5372632F6D61696E2E6300000003
:1025C00015480068FF210131084313490860084697
:1025D000C068124908401049C860084600681049A0
:1025E00008400D490860084680684008400088603F
:1025F00008460068012189048843074908600846A5
:10260000C068FD21090488430349C86000200861AF
:10261000C803044988607047001002400C40FF88DE
:10262000F6FFF6FE00ED00E0818CC907C90F002916
:1026300008D001684968012252049143826A11431B
:10264000026851600222416A1140002907D00168E6
:102650004968D2039143C26A11430268516004225F
:10266000416A1140002907D001684968120491436A
:10267000026B1143026851600822416A114000292F
:1026800007D00168496812039143426B1143026805
:1026900051601022416A1140002907D00168896801
:1026A00012029143826B1143026891602022416AB9
:1026B0001140002907D00168896812029143C26B5A
:1026C0001143026891604022416A1140002915D0EF
:1026D0000168496892039143026C1143026851609A
:1026E00001221205016C914208D101684968032258
:1026F00052059143426C1143026851608022416A45
:102700001140002907D00168496812039143826C87
:10271000114302685160704738B504460025002017
:10272000E066FEF7DBF805462068006808210840EF
:1027300008280BD114482B4600228904009020461B
:1027400000F0BBFA002801D0032038BD20680068E3
:102750000421084004280BD10B482B460022090510
:102760000090204600F0A9FA002801D00320ECE7F1
:102770002021692001556A20015500BF00216820F1
:10278000015500BF0020E0E7FFFFFF0170B50546DF
:10279000AC6A00215A200153522001532046FFF712
:1027A0001EFA70BD01680968FF2221329143026858
:1027B0001160016889684908490002689160202217
:1027C0006A210A54704710B5044620680068402109
:1027D0008843216808602021692001552046FFF7C1
:1027E0006DFC002010BDF8B504465C20075B6A2034
:1027F000005D222837D12068406A85B20121090393
:10280000A06888420AD12069002807D1666D284651
:1028100038403080606D801C606505E0F8B228406B
:10282000626D511C616510705A20005B401E81B2C0
:102830005A200153002914D120680068FF2121315A
:10284000884321680860206880684008400021684B
:10285000886020216A2001552046FFF787FB002071
:10286000F8BD0020FCE72068806908210843216842
:1028700088610220F4E70000F0B587B00446002527
:1028800010260020059004900390E44920688842B7
:1028900001D1012000E00020002800D000E000BFAE
:1028A0002169A068084361690843E1690843054656
:1028B00020680068DA4908402843216808602068D9
:1028C0004068032109038843E168084321684860A0
:1028D000A569D2492068884201D1012000E000208A
:1028E000002801D1206A0543206880680B21090275
:1028F000884328432168886000BFCA49206888420D
:1029000017D1C948C0688007800F002806D0012869
:1029100008D0022804D0032808D105E0012607E0EA
:10292000022605E0042603E0082601E0102600BF89
:102930003AE0BE492068884217D1BB48C0680C21E4
:102940000840002806D0042808D0082804D00C2805
:1029500008D105E0002607E0022605E0042603E092
:10296000082601E0102600BF1EE0AC49206888421E
:102970001AD1AD48C068032189020840002808D058
:1029800001218902401A08D0401A04D0401A08D107
:1029900005E0002607E0022605E0042603E00826FD
:1029A00001E0102600BF00BF00BF0220FEF7FEF8C6
:1029B00007469A492068884201D1012000E00020A2
:1029C000002856D00025042E1AD004DC002E07D093
:1029D000022E1CD108E0082E16D0102E17D117E0B9
:1029E000FEF7C8FC054616E08F4840380068102105
:1029F00008400009002801D08D4D00E08D4D0AE00F
:102A0000FEF7DCFC054606E00125ED0303E000BF10
:102A10000120039000BF00BF002D0AD06068410074
:102A20004018A84203D860680003A84202D20120DF
:102A30000390EFE0606802902846FF21013100F02A
:102A40008BF9626852080023801859410191009067
:102A5000029AFDF763FB054603200002854205D379
:102A60007548854202D82068C560D3E001200390F4
:102A7000D0E00121C903E069884269D1042E3DD02C
:102A800006DC002E09D0012E11D0022E4DD11BE004
:102A9000082E40D0102E48D148E07A0063685B08C9
:102AA000D0186168FDF724FB80B2049041E0FEF786
:102AB00073FC400061684908401802906168FDF7A6
:102AC00017FB80B2049034E057484038006810216A
:102AD00008400009002808D061684A08574BD01800
:102AE000FDF706FB80B2049007E061684A08544B8A
:102AF000D018FDF7FDFA80B204901AE0FEF75EFCF4
:102B0000400061684908401802906168FDF7F0FADA
:102B100080B204900DE061684A0801231B04D018BC
:102B2000FDF7E6FA80B2049003E000BF01200390B5
:102B300000BF00BF4349049808400590049800076F
:102B4000400F05990843059005982168C86061E029
:102B5000042E42D006DC002E09D0012E14D0022E05
:102B600053D11EE0082E45D0102E4ED14EE0FEF778
:102B700001FC61684908401802906168FDF7B8FAE5
:102B800080B22168C86044E0FEF706FC616849082D
:102B9000401802906168FDF7ABFA80B22168C86006
:102BA00037E021484038006810210840000900281B
:102BB00009D061684A081E4BD018FDF799FA80B217
:102BC0002168C86008E061684A081A4BD018FDF710
:102BD0008FFA80B22168C8601BE0FEF7EFFB6168E6
:102BE0004908401802906168FDF782FA80B22168B6
:102BF000C8600EE061684A080123DB03D018FDF7C6
:102C000077FA80B22168C86003E000BF012003901A
:102C100000BF00BF039807B0F0BD000000480040AF
:102C2000F369FFEF003801404010024000440040CB
:102C300000093D000024F400FFFF0F0000127A009D
:102C40000048E801F0FF000001466920405C2128AF
:102C500031D15220405A00280DD1086800688023E5
:102C600098430B68186008680068402318430B6895
:102C700018600020704701231B03886898420CD11C
:102C80000869002809D1CA6C1088C005C00D0B68FE
:102C90009862C86C801CC86405E0CB6C581CC86482
:102CA00018780B6898625220405A401E83B2522016
:102CB00043520020DEE70220DCE7FFB581B0044686
:102CC0000D4617460A9E24E0701C002821D0002ED5
:102CD00005D0FDF703FE0499401AB04219D92068C7
:102CE0000068FF21A131884321680860206880685E
:102CF00040084000216888602021692001556A2031
:102D0000015500BF00216820015500BF032005B018
:102D1000F0BD2068C0692840A84201D1012000E030
:102D20000020B842D0D00020F1E700BFFEE700004D
:102D30000FB410B504A9074B02AA039800F034F8A9
:102D4000044602A9002000F0D7F8204610BC08BCB9
:102D500004B01847F92E0008F8B582B28BB2040C03
:102D60000D0C10465843002126465E43370C3604AE
:102D70008019794116466E43370C36048019794123
:102D800026466E438919F8BD02E008C8121F08C123
:102D9000002AFAD170477047002001E001C1121FDC
:102DA000002AFBD170470000FFB58DB00446002516
:102DB00006E025280AD0109A0F999047641C6D1CD4
:102DC00020780028F5D1284611B0F0BD0027012158
:102DD000484A009700E00743641C23780846203BDC
:102DE00098401042F7D120782E2817D104200743AD
:102DF0006078641C2A280CD10E98641C02C80091CB
:102E00000E900BE000990A22514330394018641C9F
:102E100000902078014630390929F3D9207800281C
:102E2000D1D0642808D0692806D075281ED0109A01
:102E30000F9990476D1C5BE00A200E99019001C923
:102E40000E91002802DA40422D2102E0390504D516
:102E50002B216A461172012103E0F90704D02021D9
:102E6000F7E70BAE0B910DE00021FAE70A200E996F
:102E7000019001C90E91F7E70199FDF739F9303159
:102E8000761E31700028F7D103A8801B20300190F6
:102E9000780701D5009801E001200090019988424F
:102EA00001DD401A00E000200027009006E002A8A3
:102EB000109AC05D0F9990476D1C7F1C0B9887423C
:102EC000F5DB04E0109A30200F9990476D1C0099B3
:102ED000481E00900029F5DC05E03078109A761C39
:102EE0000F9990476D1C0199481E01900029F4DC50
:102EF000641C65E7092801000A68531C0B60107008
:102F000070470000FDF7F8FDFFF7FCFAFFF732F914
:102F1000FFF730FAFFF7F0F9FFF7D4F8FFF72AF9D7
:102F200022A0FDF72BF984B2214B22461FA1214894
:102F3000FFF74CF8042220491E48FEF7A1FF34E0B9
:102F40001E48006800282BD11D480068002827D1A2
:102F50001C480068012823D11B48007801281FD194
:102F600000201849086018490870184818A102681C
:102F70001C48FFF7DDFE1B48007C0D2802D1012014
:102F80001949086018480068012809D11548FDF75B
:102F9000F5F884B2064B224612490648FFF716F8A8
:102FA000042205490348FEF76BFFC9E741540D00B1
:102FB00010270000D4000020010000201000002095
:102FC000080000201C000020050000201400002044
:102FD00041542453463D3031303230333034302583
:102FE000640D0000A801002018000020000000006F
:102FF00000000000010203040607080900000000A9
:1030000001020304030406080C101820300000001D
:10301000303000080000002028000000882D000843
:10302000583000082800002098050000982D00085E
:103030000000000000000000000000000000000090
:10304000000000000500000000000000000000007B
:0830500080841E000000000056
:04000005080000C12E
:00000001FF
