:020000040800F2
:1000000010040020D500000881030008F102000858
:1000100000000000000000000000000000000000E0
:10002000000000000000000000000000CB030008FA
:10003000E300000800000000C9030008FD030008F9
:10004000E9000008E9000008E9000008E9000008EC
:10005000E9000008D1020008E9000008E9000008F2
:10006000E9000008E9000008E9000008E9000008CC
:10007000E9000008E900000800000000E9000008AD
:1000800000000000E900000800000000000000007F
:10009000E900000800000000E9000008F50200087F
:1000A00041030008E9000008E9000008E900000831
:1000B000E9000008E9000008E9000008E90000087C
:1000C0000348854600F016F80048004781050008FF
:1000D000100400200548804705480047FEE7FEE77A
:1000E000FEE7FEE7FEE7FEE7FEE700000D0500087D
:1000F000C1000008064C0125064E05E0E36807CC68
:100100002B430C3C98471034B442F7D3FFF7DCFF85
:10011000C0050008E005000810B50A488168090913
:10012000090181600848026801210A43026082686F
:100130000A4382600021052000F024F903492020B1
:10014000086010BD000001400004014000E100E033
:100150000548C16A01221143C162052000070168F8
:100160008908890001607047001002400E48C16A8A
:1001700002221143C1620D48C2680F2109038A435C
:100180000314D218C2604268C0231A434260026A54
:1001900011231202120A1B06D218026202688A4355
:1001A000C113511801607047001002400004005054
:1001B0001048C16A02221143C1620F48C2680F2170
:1001C000890605238A439B06D218C260426803232E
:1001D0005B031A434260426AFF231B059A4355237F
:1001E0001B05D218426202688A430521C9065118CC
:1001F0000160704700100240000400500B48C16AC3
:1002000003221143C1620520000701689202914355
:10021000012292028918016005490868032212022E
:100220009043FF300130086070470000001002402A
:100230000004005010B51148816B01225205114392
:1002400081630E484030C168032212039143C160AC
:100250000C480B490161092101608168B4221143F6
:1002600081608168C213114381600021172000F072
:1002700089F801200449C005086010BD0010024043
:10028000190630000054004000E100E010B50B48B2
:10029000816B01229205114381630A48084901617B
:1002A00005210160084941600021182000F06AF82A
:1002B000012006490006086010BD00000010024041
:1002C0001906300000580040B404010200E100E0CB
:1002D00005484169C90706D00121416103484168C9
:1002E000421411434160704700040140005800402F
:1002F000FEE700000F48816902220B07002B0ADA93
:10030000C16908231943C1618169C90302D5016824
:10031000114301607047890705D501689143016069
:10032000A521816270470449012008800349C00566
:1003300008607047005400400000002080E100E0A9
:100340000B48816901224B070A49002B0ADA406AEF
:10035000A52801D00A807047074841691022514002
:10036000416170470A800120044900060860704717
:1003700000580040000000200004005080E100E030
:10038000704700008307FF22DB0E9A408907090EA1
:10039000994000280BDA0007000F08388308084846
:1003A0009B001818C36993430B43C36170478308CC
:1003B00004489B001B181868904308431860704756
:1003C00000ED00E000E400E070477047094910B517
:1003D000401E884201D9012010BD074C60610321F5
:1003E000081FFFF7CFFF0020A06107202061002039
:1003F00010BD0000FFFFFF0000E000E030B519482D
:10040000C168491CC16044680521641EC8222023BC
:1004100009074460641C11D10488002C1DD0048895
:10042000FF2C0BD004886400641E44807D242401CA
:10043000446082608B610C4D1024AC624488002CB7
:100440000AD085686D1E85606D1C05D14D695D40C3
:100450004D61641E8260448030BD7D24E4004460B0
:10046000ECE70000000000200004005030B52348F5
:10047000816B02041143816321490A680323DB0273
:100480009A43C314D2180A6001680922114301601B
:100490001C49CA68142305E0CC68A41A642C01D94D
:1004A000022024E005681C46AC43F5D1C268132342
:1004B0009B041A43C260026801231B061A430260B0
:1004C000CB68032205E0CC68E41A642C01D90A80C9
:1004D00030BD0468A401F6D5C3681343C360CA687D
:1004E000094B06E0CC68A41A9C4202D9042008807B
:1004F00030BDC4682407A40FF4D030BD0010024002
:1005000000700040000000208813000010480168BF
:10051000821511430160C1680E4A1140C160016833
:100520000D4A1140016081684908490081600168F5
:100530000122920491430160C168FD22120491439B
:10054000C160002101610549C00388607047000057
:10055000001002400C40FF88F6FFF6FE00ED00E0C0
:1005600002E008C8121F08C1002AFAD1704770477C
:10057000002001E001C1121F002AFBD170470000DA
:100580007D200001FFF722FFFFF770FFFFF736FE27
:100590000A480088002800D0FEE77D20C001FFF750
:1005A00015FFFFF7E3FDFFF745FEFFF701FEFFF73D
:1005B0006DFEFFF7CDFDFFF7AFFDFEE70000002069
:1005C000E0050008000000201000000060050008A1
:1005D000F00500081000002000040000700500086D
:1005E00000000000E8030000C80000000000000058
:04000005080000C12E
:00000001FF
